{
  "_format": "hh-sol-artifact-1",
  "contractName": "Crowdfunder",
  "sourceName": "contracts/Crowdfunder.sol",
  "abi": [
    {
      "inputs": [
        {
          "internalType": "uint256",
          "name": "_maxAmountToRaise",
          "type": "uint256"
        }
      ],
      "stateMutability": "nonpayable",
      "type": "constructor"
    },
    {
      "anonymous": false,
      "inputs": [
        {
          "indexed": true,
          "internalType": "address",
          "name": "contributor",
          "type": "address"
        },
        {
          "indexed": false,
          "internalType": "uint256",
          "name": "amount",
          "type": "uint256"
        }
      ],
      "name": "ContributionReceived",
      "type": "event"
    },
    {
      "inputs": [
        {
          "internalType": "uint256",
          "name": "",
          "type": "uint256"
        }
      ],
      "name": "Contributors",
      "outputs": [
        {
          "internalType": "address",
          "name": "contributorAddress",
          "type": "address"
        },
        {
          "internalType": "uint256",
          "name": "amount",
          "type": "uint256"
        }
      ],
      "stateMutability": "view",
      "type": "function"
    },
    {
      "inputs": [],
      "name": "amountRaised",
      "outputs": [
        {
          "internalType": "uint256",
          "name": "",
          "type": "uint256"
        }
      ],
      "stateMutability": "view",
      "type": "function"
    },
    {
      "inputs": [],
      "name": "contribute",
      "outputs": [],
      "stateMutability": "payable",
      "type": "function"
    },
    {
      "inputs": [
        {
          "internalType": "address",
          "name": "",
          "type": "address"
        }
      ],
      "name": "contributions",
      "outputs": [
        {
          "internalType": "uint256",
          "name": "",
          "type": "uint256"
        }
      ],
      "stateMutability": "view",
      "type": "function"
    },
    {
      "inputs": [],
      "name": "getContractBalance",
      "outputs": [
        {
          "internalType": "uint256",
          "name": "",
          "type": "uint256"
        }
      ],
      "stateMutability": "view",
      "type": "function"
    },
    {
      "inputs": [
        {
          "internalType": "address",
          "name": "_contributor",
          "type": "address"
        }
      ],
      "name": "getContribution",
      "outputs": [
        {
          "internalType": "uint256",
          "name": "",
          "type": "uint256"
        }
      ],
      "stateMutability": "view",
      "type": "function"
    },
    {
      "inputs": [
        {
          "internalType": "uint256",
          "name": "_contributorId",
          "type": "uint256"
        }
      ],
      "name": "getContributor",
      "outputs": [
        {
          "internalType": "address",
          "name": "",
          "type": "address"
        },
        {
          "internalType": "uint256",
          "name": "",
          "type": "uint256"
        }
      ],
      "stateMutability": "view",
      "type": "function"
    },
    {
      "inputs": [],
      "name": "maxAmountToRaise",
      "outputs": [
        {
          "internalType": "uint256",
          "name": "",
          "type": "uint256"
        }
      ],
      "stateMutability": "view",
      "type": "function"
    },
    {
      "inputs": [],
      "name": "owner",
      "outputs": [
        {
          "internalType": "address",
          "name": "",
          "type": "address"
        }
      ],
      "stateMutability": "view",
      "type": "function"
    },
    {
      "inputs": [],
      "name": "totalNumberContributors",
      "outputs": [
        {
          "internalType": "uint256",
          "name": "",
          "type": "uint256"
        }
      ],
      "stateMutability": "view",
      "type": "function"
    },
    {
      "inputs": [],
      "name": "withdraw",
      "outputs": [],
      "stateMutability": "nonpayable",
      "type": "function"
    },
    {
      "stateMutability": "payable",
      "type": "receive"
    }
  ],
  "bytecode": "0x608060405234801561001057600080fd5b5060405161107c38038061107c833981810160405281019061003291906100ca565b336000806101000a81548173ffffffffffffffffffffffffffffffffffffffff021916908373ffffffffffffffffffffffffffffffffffffffff1602179055508060038190555060006001819055506000600281905550506100f7565b600080fd5b6000819050919050565b6100a781610094565b81146100b257600080fd5b50565b6000815190506100c48161009e565b92915050565b6000602082840312156100e0576100df61008f565b5b60006100ee848285016100b5565b91505092915050565b610f76806101066000396000f3fe6080604052600436106100a05760003560e01c806356efe00a1161006457806356efe00a146101a65780636f9fb98a146101d15780637b3e5e7b146101fc5780638da5cb5b14610227578063c6f5b0e014610252578063d7bb99ba14610290576100a7565b806321eff7fc146100ac5780632ac29365146100e95780633ccfd60b1461011457806342e94c901461012b5780634c85415814610168576100a7565b366100a757005b600080fd5b3480156100b857600080fd5b506100d360048036038101906100ce9190610a08565b61029a565b6040516100e09190610a4e565b60405180910390f35b3480156100f557600080fd5b506100fe6102e3565b60405161010b9190610a4e565b60405180910390f35b34801561012057600080fd5b506101296102e9565b005b34801561013757600080fd5b50610152600480360381019061014d9190610a08565b610468565b60405161015f9190610a4e565b60405180910390f35b34801561017457600080fd5b5061018f600480360381019061018a9190610a95565b610480565b60405161019d929190610ad1565b60405180910390f35b3480156101b257600080fd5b506101bb6104d4565b6040516101c89190610a4e565b60405180910390f35b3480156101dd57600080fd5b506101e66104da565b6040516101f39190610a4e565b60405180910390f35b34801561020857600080fd5b506102116104e2565b60405161021e9190610a4e565b60405180910390f35b34801561023357600080fd5b5061023c6104e8565b6040516102499190610afa565b60405180910390f35b34801561025e57600080fd5b5061027960048036038101906102749190610a95565b61050c565b604051610287929190610ad1565b60405180910390f35b6102986105fb565b005b6000600560008373ffffffffffffffffffffffffffffffffffffffff1673ffffffffffffffffffffffffffffffffffffffff168152602001908152602001600020549050919050565b60025481565b60008054906101000a900473ffffffffffffffffffffffffffffffffffffffff1673ffffffffffffffffffffffffffffffffffffffff163373ffffffffffffffffffffffffffffffffffffffff1614610377576040517f08c379a000000000000000000000000000000000000000000000000000000000815260040161036e90610b98565b60405180910390fd5b6000600154116103bc576040517f08c379a00000000000000000000000000000000000000000000000000000000081526004016103b390610c04565b60405180910390fd5b600047116103ff576040517f08c379a00000000000000000000000000000000000000000000000000000000081526004016103f690610c70565b60405180910390fd5b60008054906101000a900473ffffffffffffffffffffffffffffffffffffffff1673ffffffffffffffffffffffffffffffffffffffff166108fc479081150290604051600060405180830381858888f19350505050158015610465573d6000803e3d6000fd5b50565b60056020528060005260406000206000915090505481565b6004818154811061049057600080fd5b90600052602060002090600202016000915090508060000160009054906101000a900473ffffffffffffffffffffffffffffffffffffffff16908060010154905082565b60035481565b600047905090565b60015481565b60008054906101000a900473ffffffffffffffffffffffffffffffffffffffff1681565b6000806004805490508310610556576040517f08c379a000000000000000000000000000000000000000000000000000000000815260040161054d90610cdc565b60405180910390fd5b60006004848154811061056c5761056b610cfc565b5b90600052602060002090600202016040518060400160405290816000820160009054906101000a900473ffffffffffffffffffffffffffffffffffffffff1673ffffffffffffffffffffffffffffffffffffffff1673ffffffffffffffffffffffffffffffffffffffff1681526020016001820154815250509050806000015181602001519250925050915091565b6000341161063e576040517f08c379a000000000000000000000000000000000000000000000000000000000815260040161063590610d9d565b60405180910390fd5b60035460015410610684576040517f08c379a000000000000000000000000000000000000000000000000000000000815260040161067b90610e2f565b60405180910390fd5b60003073ffffffffffffffffffffffffffffffffffffffff16346040516106aa90610e80565b60006040518083038185875af1925050503d80600081146106e7576040519150601f19603f3d011682016040523d82523d6000602084013e6106ec565b606091505b50509050806106fa57600080fd5b6000600560003373ffffffffffffffffffffffffffffffffffffffff1673ffffffffffffffffffffffffffffffffffffffff168152602001908152602001600020540361080d57600060405180604001604052803373ffffffffffffffffffffffffffffffffffffffff168152602001348152509050600481908060018154018082558091505060019003906000526020600020906002020160009091909190915060008201518160000160006101000a81548173ffffffffffffffffffffffffffffffffffffffff021916908373ffffffffffffffffffffffffffffffffffffffff1602179055506020820151816001015550506002600081548092919061080290610ec4565b9190505550506108e5565b60005b6004805490508110156108e3573373ffffffffffffffffffffffffffffffffffffffff166004828154811061084857610847610cfc565b5b906000526020600020906002020160000160009054906101000a900473ffffffffffffffffffffffffffffffffffffffff1673ffffffffffffffffffffffffffffffffffffffff16036108d65734600482815481106108aa576108a9610cfc565b5b906000526020600020906002020160010160008282546108ca9190610f0c565b925050819055506108e3565b8080600101915050610810565b505b34600560003373ffffffffffffffffffffffffffffffffffffffff1673ffffffffffffffffffffffffffffffffffffffff16815260200190815260200160002060008282546109349190610f0c565b92505081905550346001600082825461094d9190610f0c565b925050819055503373ffffffffffffffffffffffffffffffffffffffff167f1bb460ccaaf70fbacfec17a376f8acbd278c1405590ffcc8ebe4b88daf4f64ad3460405161099a9190610a4e565b60405180910390a250565b600080fd5b600073ffffffffffffffffffffffffffffffffffffffff82169050919050565b60006109d5826109aa565b9050919050565b6109e5816109ca565b81146109f057600080fd5b50565b600081359050610a02816109dc565b92915050565b600060208284031215610a1e57610a1d6109a5565b5b6000610a2c848285016109f3565b91505092915050565b6000819050919050565b610a4881610a35565b82525050565b6000602082019050610a636000830184610a3f565b92915050565b610a7281610a35565b8114610a7d57600080fd5b50565b600081359050610a8f81610a69565b92915050565b600060208284031215610aab57610aaa6109a5565b5b6000610ab984828501610a80565b91505092915050565b610acb816109ca565b82525050565b6000604082019050610ae66000830185610ac2565b610af36020830184610a3f565b9392505050565b6000602082019050610b0f6000830184610ac2565b92915050565b600082825260208201905092915050565b7f4f6e6c7920746865206f776e65722063616e2063616c6c20746869732066756e60008201527f6374696f6e000000000000000000000000000000000000000000000000000000602082015250565b6000610b82602583610b15565b9150610b8d82610b26565b604082019050919050565b60006020820190508181036000830152610bb181610b75565b9050919050565b7f4e6f20636f6e747269627574696f6e7320796574210000000000000000000000600082015250565b6000610bee601583610b15565b9150610bf982610bb8565b602082019050919050565b60006020820190508181036000830152610c1d81610be1565b9050919050565b7f4e6f2066756e647320746f207769746864726177000000000000000000000000600082015250565b6000610c5a601483610b15565b9150610c6582610c24565b602082019050919050565b60006020820190508181036000830152610c8981610c4d565b9050919050565b7f436f6e7472696275746f7220646f6573206e6f74206578697374000000000000600082015250565b6000610cc6601a83610b15565b9150610cd182610c90565b602082019050919050565b60006020820190508181036000830152610cf581610cb9565b9050919050565b7f4e487b7100000000000000000000000000000000000000000000000000000000600052603260045260246000fd5b7f436f6e747269627574696f6e206d75737420626520677265617465722074686160008201527f6e20300000000000000000000000000000000000000000000000000000000000602082015250565b6000610d87602383610b15565b9150610d9282610d2b565b604082019050919050565b60006020820190508181036000830152610db681610d7a565b9050919050565b7f43616d706169676e20686173207265616368656420697473206d6178696d756d60008201527f20616d6f756e7420746f20726169736500000000000000000000000000000000602082015250565b6000610e19603083610b15565b9150610e2482610dbd565b604082019050919050565b60006020820190508181036000830152610e4881610e0c565b9050919050565b600081905092915050565b50565b6000610e6a600083610e4f565b9150610e7582610e5a565b600082019050919050565b6000610e8b82610e5d565b9150819050919050565b7f4e487b7100000000000000000000000000000000000000000000000000000000600052601160045260246000fd5b6000610ecf82610a35565b91507fffffffffffffffffffffffffffffffffffffffffffffffffffffffffffffffff8203610f0157610f00610e95565b5b600182019050919050565b6000610f1782610a35565b9150610f2283610a35565b9250828201905080821115610f3a57610f39610e95565b5b9291505056fea264697066735822122067117651225b4071d57a405b08c92a789e26704ba90818c8356a91a44ba22a3d64736f6c63430008180033",
  "linkReferences": {},
  "deployedLinkReferences": {}
}